:020000040800F2
:10000000C8050020D5000008211C00081D1C0008A0
:1000100000000000000000000000000000000000E0
:10002000000000000000000000000000ED1C0008BF
:100030000000000000000000C91C0008411D00086D
:10004000E7000008E7000008E7000008E7000008F4
:10005000E7000008E7000008E7000008E7000008E4
:1000600000000000490200085502000800000000DE
:10007000E7000008E7000008E700000800000000B3
:10008000E7000008E700000800000000E7000008A3
:1000900000000000E7000008E7000008E700000893
:1000A00000000000E7000008E7000008C521000884
:1000B000D121000800000000E70000080000000057
:1000C0000348854600F046F80048004779010008DB
:1000D000C80500200448804704480047FEE7FEE7C3
:1000E000FEE7FEE7FEE7FEE7491D0008C100000845
:1000F000D2B201E00270401C491EFBD270470022C0
:10010000F6E710B513460A4604461946FFF7F0FF16
:10011000204610BD70B50446002903D000202022DF
:10012000012310E0002801D00020C043C046C04693
:100130000DE02546D5408D4205D30D469540641B04
:100140001D46954040191546521E002DF1DC2146F2
:1001500070BD0000064C0125064E05E0E36807CCA3
:100160002B430C3C98471034B442F7D3FFF7ACFF55
:1001700090230008B023000880B582B00120C0069B
:10018000009001A900200870FFE701A800782F283F
:100190000DDCFFE7009801A909788A008058094919
:1001A0008850FFE70198401C01A90870EDE7012085
:1001B00040070349086002F03FF8002002B080BD0C
:1001C00008ED00E00000002010B592B007A80190F3
:1001D0002C21FFF794FF01980021029106910591CF
:1001E000049103910F22079201231A020C920D91A0
:1001F000134A1268134C2240DB03D2180E92089166
:100200000F910A9102221092119100F0BDFE002878
:1002100003D0FFE700F04EF8FFE70720039002202D
:10022000049000200590069003A8012100F008FC2E
:10023000002803D0FFE700F03DF8FFE712B010BD43
:10024000100FFF1FFF1F000080B50548C06B00F0B6
:1002500085F880BD80B50248006C00F07FF880BD55
:10026000D000002084B00390029101920093039982
:100270000A6C01209040C96B486000980399096896
:10028000486003984068102809D1FFE70198039956
:1002900009688860029803990968C86008E00298B4
:1002A000039909688860019803990968C860FFE7A5
:1002B00004B07047FFE7FEE780B586B0059004A95B
:1002C0000020087005982121405C022807D0FFE734
:1002D00005990420886304A9012008703AE0059874
:1002E000016808680E229043086005980168086854
:1002F000012290430860059800687E49884203D136
:10030000FFE7012003900EE005980168012000023C
:100310000190794A10209142029001D001980290F8
:1003200002980390FFE70398744908600599212219
:1003300001208854FFE70599202200208854FFE718
:100340000598406B002804D0FFE70598416B88476B
:10035000FFE7FFE704A8007806B080BD80B58AB04B
:1003600009900998C06B00680890099800680068B7
:10037000079008980999096CC8404007002839D5AA
:10038000FFE707A800784007002833D5FFE7099862
:10039000006800688006002807D4FFE70998016814
:1003A0000868042290430860FFE7099800685149F3
:1003B000884203D1FFE7042006900EE00998016807
:1003C0000120800204904C4A40209142059001D0C7
:1003D0000498059005980690FFE70698474908603D
:1003E0000998C06A002804D0FFE70998C16A8847C5
:1003F000FFE77CE008980999096CC840800700284D
:1004000043D5FFE707A80078800700283DD5FFE720
:10041000099800680068800600280BD4FFE7099857
:10042000016808680A229043086009992122012086
:100430008854FFE7099800682E49884203D1FFE7F6
:10044000022003900EE0099801680120400201900B
:10045000294A20209142029001D0019802900298EE
:100460000390FFE7039825490860FFE709992022D8
:1004700000208854FFE70998806A002804D0FFE72D
:100480000998816A8847FFE730E008980999096C64
:10049000C8400007002828D5FFE707A80078000714
:1004A000002822D5FFE70998016808680E229043CA
:1004B0000860099A136C012001469940D26B516083
:1004C00009998863099921228854FFE70999202214
:1004D00000208854FFE70998006B002804D0FFE74C
:1004E0000998016B8847FFE7FFE7FFE7FFE70AB0DE
:1004F00080BDC046080002401C00024004000240CB
:1005000080B584B00290002001900298002804D1A8
:10051000FFE703A9012008703AE002980090006804
:100520001D4940181421FFF7F5FD0099800008646B
:1005300002991A48C863029921230220C8540298DC
:1005400000680068019001981549084001900298E0
:10055000416882681143C2681143026911434269CC
:10056000114382691143C069014301980843019016
:100570000198029909680860029900208863029A2C
:100580000121D15402992022885403A90870FFE761
:1005900003A8007804B080BDF8FFFDBF0000024052
:1005A0000FC0FFFF80B586B00490039102920193C3
:1005B000694600200870FFE704982021405C01286C
:1005C00004D1FFE705A9022008704CE0049920221D
:1005D00001208854FFE7FFE704982121405C0128AF
:1005E00033D1FFE704992122022088540499002086
:1005F00088630498016808680122904308600498A1
:100600000399029A019BFFF72DFE0498C06A002807
:1006100007D0FFE70498016808680E2210430860BD
:100620000CE004980168086804229043086004986C
:10063000016808680A2210430860FFE7049801680F
:10064000086801221043086009E0FFE704992022AE
:1006500000208854FFE7694602200870FFE70098F1
:1006600005A90870FFE705A8007806B080BD000066
:1006700088B00790069100200590FFE70698006873
:100680000599C840002800D132E106980068059A13
:1006900001219140084004900498002800D123E1F2
:1006A00006984068022805D0FFE70698406812289F
:1006B00020D1FFE707980599C90889004018006A0A
:1006C000039005984007C00E0F218140039888438E
:1006D00003900698016905984007C00E8140039871
:1006E0000843039003980799059AD2089200891845
:1006F0000862FFE70798006803900598410003200F
:1007000002468A4003999143039106994968014042
:100710000598400081400398084303900398079987
:1007200008600698406801280FD0FFE706984068E7
:1007300002280AD0FFE706984068112805D0FFE795
:100740000698406812282CD1FFE70798806803902C
:100750000598400003218140039888430390069840
:10076000C1680598400081400398084303900398AE
:100770000799886007984068039005980121814097
:1007800003988843039006984068102108400109A7
:10079000059881400398084303900398079948609F
:1007A000FFE70798C0680390059840000321814047
:1007B000039888430390069881680598400081401B
:1007C00003980843039003980799C8600698C07976
:1007D000C006002800D486E00598032188434549D7
:1007E0004058039005988007C00E0F218140039860
:1007F00088430390079805210907884203D1FFE742
:10080000002002900CE007993B4A0120022300934C
:100810009142019001D00098019001980290FFE769
:10082000029905988007C00E814003980843039001
:1008300003980599032291432E4A88502F48006857
:100840000390049903988843039006988079C00721
:10085000002805D0FFE70499039808430390FFE7B9
:100860000398264908602648006803900499039875
:1008700088430390069880798007002805D5FFE714
:100880000499039808430390FFE703981C49086004
:100890001C480068039004990398884303900698C5
:1008A0008079C006002805D5FFE70499039808431E
:1008B0000390FFE70398134908601348006803900A
:1008C000049903988843039006988079800600284D
:1008D00005D5FFE70499039808430390FFE70398C1
:1008E00009490860FFE7FFE70598401C0590C5E649
:1008F00008B07047601802400004005080180240A1
:10090000841802400018024004180240054800689C
:100910007047C0462D480268024908688018086080
:100920007047C046C401002080B582B001A90020F4
:100930000870032000F00EF8002804D0FFE701A99A
:100940000120087002E000F043F8FFE701A80078FA
:1009500002B080BD80B584B0039002A90020087069
:100960001A480068002829D0FFE7CC4800680190A9
:10097000164801687D20C000FFF7CCFB01460198B6
:10098000FFF7C8FB00F096FE002812D1FFE703989E
:10099000032809D8FFE703990022D04300F041F86B
:1009A0000398BA49086003E002A901200870FFE734
:1009B00003E002A901200870FFE703E002A901207B
:1009C0000870FFE702A8007804B080BDC4000020D2
:1009D00082B0FFE70B48026801210A430260006809
:1009E000084001900198FFE7FFE7074802680121EE
:1009F00009070A4302600068084000900098FFE77A
:100A000002B07047401002403C10024080B582B0F6
:100A1000014601A801700021405601F003F902B01F
:100A200080BD80B584B0034603A803700291019293
:100A300000214056029901F005F904B080BD000084
:100A400080B584B0029001910298002804D1FFE79C
:100A500003A9012008700CE1019888490968012266
:100A60001140884221D9FFE7844908680122904358
:100A7000019A10430860FFF749FF0090FFE77F48A5
:100A8000006801210840019988420DD0FFE7FFF777
:100A90003DFF0099401A7E49884204D3FFE703A92D
:100AA00003200870E5E0EAE7FFE702980078800796
:100AB000002817D5FFE7029800784007002807D5DF
:100AC000FFE7C54908680722120310430860FFE7E3
:100AD000C14908680F2212029043029A926810439B
:100AE0000860FFE702980078C007002872D0FFE78F
:100AF0000298406801280BD1FFE7BC4800688003DA
:100B0000002804D4FFE703A901200870B1E03DE00C
:100B10000298406800280BD1FFE7B4480068400500
:100B2000002804D4FFE703A901200870A1E02CE00D
:100B30000298406802280BD1FFE7AC4800688001AA
:100B4000002804D4FFE703A90120087091E01BE00E
:100B50000298406804280BD1FFE74A4800688007E4
:100B6000002804D4FFE703A90120087081E00AE00F
:100B7000434800688007002804D4FFE703A9012048
:100B8000087076E0FFE7FFE7FFE7FFE792490868B4
:100B900007229043029A526810430860FFF7B6FE9E
:100BA0000090FFE7F748006838210840029949683B
:100BB000C90088420DD0FFE7FFF7A8FE0099401A50
:100BC0003349884204D3FFE703A90320087050E0AB
:100BD000E8E7FFE7019829490968012211408842A6
:100BE00021D2FFE72549086801229043019A10436A
:100BF0000860FFF78BFE0090FFE7204800680121A6
:100C00000840019988420DD0FFE7FFF77FFE009969
:100C1000401A1F49884204D3FFE703A90320087044
:100C200027E0EAE7FFE702980078400700280AD5A6
:100C3000FFE7D4490868072212039043029AD2685A
:100C400010430860FFE700F03DF8CE4909680F2225
:100C5000120211408A090C4989581F221140C840CC
:100C60000E49086009480068FFF774FE03A9087080
:100C7000FFE703A8007804B080BDC0460020024012
:100C8000601002405C10024010230008C8000020E1
:100C900089130000014800687047C046C00000206A
:100CA00080B5FFF7F7FFB749096807221203114023
:100CB0008A0A034989581F221140C84080BDC04696
:100CC0005023000810B58AB0424903A80CC90CC0D3
:100CD0001CC91CC0AB4800688006400F00281ED10C
:100CE000FFE7424800680721C9020840C10A012005
:100CF000884009903A48006880B2400B0290029800
:100D0000052803D3FFE700200290FFE70298810047
:100D100003A840580999FFF7FDF9089056E0994853
:100D2000006838210840082803D1FFE72E480890C2
:100D30004BE09448006838210840102829D1FFE78B
:100D40002648006801210840019001980090002881
:100D500007D0FFE70098012816D1FFE72148089047
:100D600016E01F48006880B2400B029002980528E8
:100D700003D3FFE700200290FFE70298810003A859
:100D800040584000089003E0079840000890FFE7B3
:100D90001AE07C48006838210840202804D1FFE789
:100DA0000120C00308900EE0764800683821084012
:100DB000182804D1FFE70120C003089002E00020BA
:100DC0000890FFE7FFE7FFE7FFE7FFE708980AB0B3
:100DD00010BDC046FC220008081002400C10024062
:100DE00004100240006CDC0200366E01001002406C
:100DF00080B590B00F900E910D92022009900320C3
:100E00000B9000200A900F980090062800D993E0DC
:100E10000098810001A040588746C046370F00085F
:100E2000390E0008630E00088D0E0008B70E00088A
:100E3000E30E00080F0F0008FFE750480268012189
:100E40000A4302600068084007900798FFE7022005
:100E500008900F200C900520000708A9FFF708FC58
:100E60007FE0FFE74548026801210A43026000680D
:100E7000084006900698FFE7202008900F200C906D
:100E80000520000708A9FFF7F3FB6AE0FFE73B48EE
:100E9000026801210A430260006808400590059835
:100EA000FFE701204002089005200C90000708A9E8
:100EB000FFF7DEFB55E0FFE73048026801210A43F7
:100EC00002600068084004900498FFE70120400396
:100ED00008900F200C900520000708A9FFF7C8FB19
:100EE0003FE0FFE72548026801210A4302600068ED
:100EF000084003900398FFE70120800308900F202B
:100F00000C900520000708A9FFF7B2FB29E0FFE7D6
:100F10001A48026820210A430260006808400290D3
:100F20000298FFE70420089006200C90144808A9B6
:100F3000FFF79EFB15E0FFE7FFE71048026801217D
:100F40000A4302600068084001900198FFE7012011
:100F50000002089005200C90000708A9FFF788FB05
:100F6000FFE7084908687722120690430E9A0D9B06
:100F70001A431043086010B080BDC04634100240D0
:100F8000001400500810024080B588B00690069802
:100F9000002804D1FFE707A90120087065E306983F
:100FA0000078C007002800D1A0E0FE480068382182
:100FB00008400490FC480068012108400390049810
:100FC000102804D1FFE70398012804D0FFE7049814
:100FD000082810D1FFE7F54800688003002809D5EC
:100FE000FFE706984068002804D1FFE707A9012021
:100FF00008703AE379E006984068002813D0FFE7CC
:1010000006988068002809D0FFE7E94908680C22A3
:101010009043069A92681043086003E007A90120F4
:10102000087022E3FFE7FFE7069840680121090402
:10103000884207D1FFE7DD49086801221204104306
:1010400008601DE0069840680521090488420BD11C
:10105000FFE7D6490868012293041843086008682E
:101060001204104308600AE0D04908680122130402
:10107000984308600868920490430860FFE7FFE720
:10108000FFE706984068002817D0FFE7FFF73EFC0F
:101090000590FFE7C5480068800300280CD4FFE7EF
:1010A000FFF734FC0599401AC92804D3FFE707A9C4
:1010B00003200870D9E2EDE716E0FFF727FC059062
:1010C000FFE7BA480068800300280CD5FFE7FFF768
:1010D0001DFC0599401AC92804D3FFE707A903207E
:1010E0000870C2E2EDE7FFE7FFE7FFE70698007848
:1010F0008007002800D4BDE0AA48006838210840D5
:101100000490A94800680121084003900498102821
:1011100004D1FFE70398002804D0FFE704980028D3
:1011200057D1FFE7A14800684005002809D5FFE72F
:1011300006984069002804D1FFE707A9012008703C
:1011400093E29C4908689C4A1040069AD269104371
:101150000860FFF7DBFB0590FFE794480068400557
:1011600000280CD4FFE7FFF7D1FB0599401A0328AC
:1011700004D3FFE707A90320087076E2EDE704989F
:10118000002819D1FFE7894908680722D202904355
:10119000069A926910430860FFF794FD8149096837
:1011A0000F22120211408A09844989581F221140D6
:1011B000C84083490860FFE782480068FFF7CAFB20
:1011C000002804D0FFE707A9012008704DE2FFE7DF
:1011D0004FE00698406900282DD0FFE77349086862
:1011E0000722D2029043069A926910430860086869
:1011F0000122120210430860FFF788FB0590FFE709
:101200006A480068400500280CD4FFE7FFF77EFB22
:101210000599401A032804D3FFE707A903200870A3
:1012200023E2EDE763490868634A1040069AD269F1
:10123000104308601CE05D490868012212029043D7
:101240000860FFF763FB0590FFE75848006840051A
:1012500000280CD5FFE7FFF759FB0599401A032832
:1012600004D3FFE707A903200870FEE1EDE7FFE7DD
:10127000FFE7FFE7069800780007002856D5FFE74C
:10128000FC48006838210840182810D1FFE7FD48C5
:1012900000688007002809D5FFE70698006A002843
:1012A00004D1FFE707A901200870DEE13DE00698C0
:1012B000006A00281CD0FFE7F249086801221043A9
:1012C0000860FFF723FB0590FFE7EE480068800702
:1012D00000280CD4FFE7FFF719FB0599401A0328F3
:1012E00004D3FFE707A903200870BEE1EDE71BE088
:1012F000E4490868012290430860FFF707FB059066
:10130000FFE7E0480068800700280CD5FFE7FFF7FB
:10131000FDFA0599401A032804D3FFE707A9032023
:101320000870A2E1EDE7FFE7FFE7FFE70698007826
:101330004007002800D4EEE002A900200870CD4844
:10134000006838210840202810D1FFE7D048006805
:101350008007002809D5FFE70698C068002804D157
:10136000FFE707A9012008707FE1D3E0C6480068C5
:10137000C000002810D4FFE7FFE7C348026801213E
:1013800009070A4302600068084001900198FFE7DE
:1013900002A901200870FFE7BC480068C0050028CA
:1013A0002FD411E0081002400C100240001002403F
:1013B00010100240041002400000FFFF102300083C
:1013C000C0000020C8000020B049086801221202B5
:1013D00010430860FFF79AFA0590FFE7AB480068F2
:1013E000C00500280CD4FFE7FFF790FA0599401AD2
:1013F000032804D3FFE707A90320087035E1EDE7D0
:10140000FFE70698C06800281BD0FFE70698807C9D
:10141000800700280AD1FFE79849086803221204D0
:101420009043012252048018086009E0934908683B
:10143000032212049043069A126910430860FFE7E2
:10144000FFE7FFE70698C068012806D1FFE790494B
:10145000086801221043086019E00698C068052852
:101460000AD1FFE78A490868042210430860086827
:1014700001221043086009E0854908680122904371
:1014800008600868042290430860FFE7FFE7FFE771
:101490000698C068002818D0FFE7FFF737FA0590D4
:1014A000FFE77B480068800700280DD4FFE7FFF7BF
:1014B0002DFA0599401A7749884204D3FFE707A916
:1014C00003200870D1E0ECE717E0FFF71FFA059062
:1014D000FFE76F480068800700280DD5FFE7FFF79A
:1014E00015FA0599401A6B49884204D3FFE707A90A
:1014F00003200870B9E0ECE7FFE702A800780128B4
:1015000007D1FFE76049086801221207904308608D
:10151000FFE7FFE7FFE70698406A002800D1A0E058
:10152000544800683821084010287FD0FFE706980B
:10153000406A022858D1FFE7514908680122120683
:1015400090430860FFF7E2F90590FFE74C48006818
:10155000800100280CD5FFE7FFF7D8F90599401A5C
:10156000032804D3FFE707A9032008707DE0EDE717
:101570000698806A012804D1FFE7002000280BD1DB
:10158000FFE70698806A00280AD1FFE700F09EFB7B
:101590004149884204D8FFE707A90120087064E0A8
:1015A0003549086801229043069B9B6A18430860EE
:1015B00033490868120610430860FFF7A7F9059041
:1015C000FFE72F480068800100280CD4FFE7FFF7F1
:1015D0009DF90599401A032804D3FFE707A90320C2
:1015E000087042E0EDE720E0254908680122130673
:1015F000984308602049086890430860FFF786F91F
:101600000590FFE71E480068800100280CD5FFE721
:10161000FFF77CF90599401A032804D3FFE707A9CF
:101620000320087021E0EDE7FFE719E00698406A23
:10163000012804D1FFE707A90120087015E00E4832
:10164000006803900398012108400699896A88423E
:1016500004D0FFE707A90120087006E0FFE7FFE7D5
:10166000FFE707A900200870FFE707A8007808B087
:1016700080BDC046081002400C100240101002400D
:1016800000100240601002403C1002400070004018
:101690005C10024089130000FF23F40081B0009029
:1016A000009A034908681043086001B07047C046BB
:1016B0001C00014080B582B00190019800F018FB39
:1016C00002B080BD81B0009001B0704783B002903D
:1016D00000200190009002984521405C0190029802
:1016E0004621405C009001A80078694609780843CB
:1016F00003B0704780B586B0059005980068006813
:10170000049005980068C0680390059800684069D7
:10171000029000200190009004980F210840019051
:101720000198002811D1FFE704A80078800600285E
:101730000AD5FFE703A800788006002804D5FFE754
:10174000059800F0F7FBD8E0FFE70198002800D1EA
:10175000B3E002A80078C007002807D1FFE703A87C
:10176000008809214901084200D1A6E004A80078B8
:10177000C00700280CD0FFE703A84078C007002866
:1017800006D0FFE70599886C012210438864FFE7C3
:1017900004A80078400700280CD5FFE702A80078CD
:1017A000C007002806D0FFE70599886C0222104385
:1017B0008864FFE704A80078800700280CD5FFE7BD
:1017C00002A80078C007002806D0FFE70599886CBA
:1017D000042210438864FFE704A80078000700286B
:1017E0000CD5FFE702A80078C007002806D0FFE765
:1017F0000599886C082210438864FFE70598806C7F
:10180000002859D0FFE704A80078800600280AD5F0
:10181000FFE703A800788006002804D5FFE70598B5
:1018200000F088FBFFE70598006840694021084008
:10183000800900900598806C0007002804D4FFE719
:101840000098002830D0FFE7059800F03CFB059891
:10185000006840694006002821D5FFE70598016827
:1018600048694022904348610598006C002811D0D7
:10187000FFE70598016C224848630598006CFEF765
:101880001BFD002805D0FFE70598006C416B8847D9
:10189000FFE703E00598FFF715FFFFE703E0059872
:1018A000FFF710FFFFE706E00598FFF70BFF05992C
:1018B00000208864FFE7FFE71FE004A80078000627
:1018C00000280AD5FFE703A800780006002804D501
:1018D000FFE7059800F022FC0FE004A8007840061E
:1018E00000280AD5FFE703A800784006002804D5A1
:1018F000FFE7059800F0FCFAFFE706B080BDC046A0
:10190000C91D000880B582B000900098002804D15D
:10191000FFE701A9012008704BE0009880690028CA
:1019200001D0FFE700E0FFE700984521405C002878
:1019300008D1FFE70099442200208854009800F065
:101940003DF8FFE70099452224208854009801685B
:10195000C868012252039043C860009800F048FB19
:101960000098006A002804D0FFE7009800F004FA0D
:10197000FFE70098016808690122D30298430861D3
:1019800000980168486908239843486100980168F5
:10199000C86852031043C860009900208864009A08
:1019A00045232021D154009A4623D15401A908701F
:1019B000FFE701A8007802B080BD000080B592B0BA
:1019C0001190FFE749480268012149040A43026077
:1019D0000068084010901098FFE7FFE7444802684D
:1019E00001210A430260006808400F900F98FFE74A
:1019F000FFE74048026801210A430260006808408E
:101A00000E900E98FFE7FFE73B48026801210A436A
:101A10000260006808400D900D98FFE703200890D1
:101A20000221099101210A910B9009200C900520B7
:101A3000000708A9FEF71CFE3048079030490160F6
:101A400010214160002181608022C26001614161FA
:101A50008161C161FEF754FD002803D0FFE7FEF766
:101A600029FCFFE7FFE727482449C1634862FFE7F5
:101A7000254806902549016000214160816080224F
:101A8000C260016141618161C161FEF739FD0028D9
:101A900003D0FFE7FEF70EFCFFE7FFE719481A49FE
:101AA00001644862FFE71A48FFF7F8FD1C20019027
:101AB0000021029101220492FEF7B3FF0198FEF784
:101AC000A5FF0299049A09200390FEF7AAFF039844
:101AD000FEF79CFF049A0A2005901146FEF7A1FF2D
:101AE0000598FEF793FF12B080BDC0463C1002403F
:101AF00034100240401002403810024080010020A3
:101B000008000240D00000203C0100201C000240E0
:101B10000708000081B0009001B0704780B586B022
:101B20000490039102A8028004984521405C20287B
:101B30005ED1FFE70398002805D0FFE702A80088E0
:101B4000002804D1FFE705A90120087054E0FFE751
:101B500004984421405C012804D1FFE705A9022034
:101B6000087049E00499442201208854FFE7FFE708
:101B700003980499C8620298049908860298049907
:101B80004886049900208864049A45232121D15471
:101B90000499CA6B1A4991620499CA6B1949D162B6
:101BA0000499CA6B184911630499C96B486303A867
:101BB0000190049AD06B019909681268121D02AB5A
:101BC0001B88FEF7EFFC049801684020C0430860C2
:101BD000FFE70499442200208854FFE70498016835
:101BE000486980221043486105A90020087003E07D
:101BF00005A902200870FFE705A8007806B080BD9F
:101C00006B1E0008B11E0008E91D000881B000909D
:101C100001B0704781B0009001B07047FFE7FEE768
:101C20007047000081B001466846017001781F20AE
:101C30000140012088400249086001B07047C04659
:101C400000E100E070B582B0024601A80270009188
:101C50000021405600281BD5FFE701A908780F2472
:101C6000204008380322D3431840164A80580025E4
:101C700049578D07EE0EFF25B540A843009DAD01E5
:101C8000EDB2B5402843214008391940885015E08D
:101C9000002401A908570322D3431840084A80585A
:101CA00009578C07E50EFF24AC40A043009CA4011B
:101CB000E4B2AC40204319408850FFE702B070BD49
:101CC00000E400E01CED00E07047000081B0264811
:101CD000006880B2400B009000984007C10E024897
:101CE000405801B07047C04670230008704700009C
:101CF00080B584B002900298401E000E002803D0E8
:101D0000FFE70120039011E00298401E0949086096
:101D100000200190C0430321FFF794FF019806497A
:101D20000860064A072111600390FFE7039804B09A
:101D300080BDC04614E000E018E000E010E000E0E4
:101D400080B5FEF7E7FD80BD074A116807480140EE
:101D50000748006801430120430319431160C0068E
:101D6000044908607047C046041002400000FFFFAD
:101D7000040FFF1F08ED00E081B0009000982021C3
:101D8000405C400600281DD5FFE7009800684069C8
:101D9000012109038843009A536A1843126850616D
:101DA0000098406A88420CD1FFE7009800684069BB
:101DB00003214903884300998A6A104309684861EE
:101DC000FFE7FFE701B0704780B582B0019001984E
:101DD000406A009000990020488700994886009842
:101DE000FFF770FC02B080BD80B584B00390002086
:101DF00002900398406A0190019800684069C0B25F
:101E0000C009029001984521405C21280BD1FFE7D1
:101E10000298002807D0FFE7019900204886019822
:101E200000F079F8FFE70198006840694021084018
:101E30008009029001984621405C22280BD1FFE7DF
:101E40000298002807D0FFE70199002048870198F1
:101E500000F039F8FFE70199886C1022104388647C
:101E60000198FFF72FFC04B080BD80B582B00190CF
:101E70000198406A00900198006800688006002878
:101E800010D4FFE70099002048860098016848694F
:101E900080229043486100980168C868402210433E
:101EA000C86003E00098FFF7B1FEFFE702B080BD15
:101EB00080B582B001900198406A00900098FFF7C9
:101EC000A9FE02B080BD81B0009000980168C8688A
:101ED000092252019043C8600098016848690122B4
:101EE00090434861009946222020885401B07047F1
:101EF00080B582B0019001980168C8684022904383
:101F0000C86001994522202088540198FFF77EFE81
:101F1000002002B080BD81B0009000980168C868C0
:101F2000C0229043C860009945222020885401B007
:101F30007047000010B584B0029002984621405CC2
:101F400022284CD1FFE702988068012109038842CA
:101F500014D1FFE70298006900280FD1FFE702982B
:101F6000406B0190029800684068954908400199CB
:101F700008800299486B801C486308E0029800685A
:101F80004068029B596B4A1C5A630870FFE702992C
:101F9000488F401E4887000400281CD1FFE70298A4
:101FA0000268D16820208143D16002990A68D16813
:101FB00001231C02A143D16002990A685169994327
:101FC00051610299462288540298FFF7A3FD03A9A4
:101FD0000020087007E003A90020087003E003A9AF
:101FE00002200870FFE703A8007804B010BDC046C7
:101FF00010B58CB00B900B980068006901214A0362
:1020000090430B9AD3681843126810610B9A90683A
:1020100013691843526910430A900B980068C0680E
:102020003D4A10400A9A10430B9A1268D0600B98F0
:10203000C0690A900B9800684069C90288430A9AEF
:1020400010430B9A126850610B9800684069032294
:10205000120290430B9A93691843126850610B98CF
:10206000C06988422BD1FFE7FEF71AFE0990099953
:10207000192048430B99079149684900FEF74AF82F
:10208000069064210591FEF745F8059903460698E8
:102090001A0108920A465A43801AC0003230FEF7ED
:1020A00039F8079902460898F824134623405B0044
:1020B000C01807231A4080180968886029E0FEF7D5
:1020C000EFFD09900999192048430B99039149683C
:1020D0008900FEF71FF8029064210191FEF71AF8BB
:1020E0000199034602981A0104920A465A43801A3B
:1020F00000013230FEF70EF8039902460498F024EE
:1021000013462340C0180F231A40801809688860BE
:10211000FFE70CB010BDC046F3E9FFFF84B00290AA
:1021200002984521405C212841D1FFE70298806850
:1021300001210903884214D1FFE7029800690028B1
:102140000FD1FFE70298C06A0190019800881C49EE
:1021500008400299096848600299C86A801CC862F0
:102160000CE00298C06A0090009800780299096813
:1021700048600299C86A401CC862FFE70299488E0D
:10218000401E4886000400280DD1FFE70298016830
:10219000C86880229043C86002980168C8684022DD
:1021A0001043C860FFE703A90020087003E003A9FB
:1021B00002200870FFE703A8007804B07047C0460B
:1021C000FF01000080B54148FFF794FA80BDC0468A
:1021D00080B53E48FFF78EFA80BDC04680B584B01A
:1021E000009101460098039102A90191088002988C
:1021F000401C088003980988C908FF22FDF778FF72
:1022000001980088FF2814DCFFE702A90B8807204B
:102210001A46024001209040401E039ADB08D05429
:1022200003980988CA0880182021891AFDF767FFDA
:10223000FFE704B080BD000080B586B000200290AA
:102240000590FEF771FB029A012001060220FEF7BD
:10225000CFFDFDF7B9FF02991C4801901C4A0260AE
:102260001C4A42608160C160016181610821416155
:10227000FFF748FB029804A908700390FFE7FEF7F8
:1022800045FB0399401A0B280BD3FFE7FEF73EFBF3
:10229000039004AA1178481C10700F48FFF79EFFA6
:1022A000FFE70A480C492022FFF738FC002803D03A
:1022B000FFE7FDF7FFFFFFE7FFE70448FFF706FA38
:1022C000202801D0FFE7F8E7D9E7C046D00000207A
:1022D0000044004080841E001C01002002E008C869
:1022E000121F08C1002AFAD170477047002001E090
:1022F00001C1121F002AFBD17047000000093D00F8
:1023000000127A000024F4004086510100366E016C
:1023100000000000000000000000000000000000BD
:1023200000000000000000000000000000000000AD
:102330000100000002000000030000000400000093
:10234000060000000700000008000000090000006F
:10235000000000000000000000000000000000007D
:102360000100000002000000030000000400000063
:1023700000093D0000127A000024F400408651015B
:1023800000366E0100093D0000093D0000093D00D6
:10239000B023000800000020D0000000DC2200086C
:1023A00080240008D0000020F8040000EC2200087F
:1023B000000000000000000000000000000000001D
:1023C000000000000000000000000000000000000D
:1023D00000000000000000000000000000000000FD
:1023E00000000000000000000000000000000000ED
:1023F00000000000000000000000000000000000DD
:1024000000000000000000000000000000000000CC
:1024100000000000000000000000000000000000BC
:1024200000000000000000000000000000000000AC
:10243000000000000000000000000000000000009C
:10244000000000000000000000000000000000008C
:10245000000000000000000000000000000000007C
:10246000000000000000000000000000000000006C
:1024700000127A00010000000400000000000000CB
:04000005080000C12E
:00000001FF
